{
  "_format": "hh3-artifact-1",
  "contractName": "CertificateRegistry",
  "sourceName": "contracts/CertificateRegistry.sol",
  "abi": [
    {
      "inputs": [
        {
          "internalType": "uint256",
          "name": "_registrationFee",
          "type": "uint256"
        },
        {
          "internalType": "uint256",
          "name": "_certificateIssuanceFee",
          "type": "uint256"
        }
      ],
      "stateMutability": "nonpayable",
      "type": "constructor"
    },
    {
      "anonymous": false,
      "inputs": [
        {
          "indexed": true,
          "internalType": "uint256",
          "name": "certificateId",
          "type": "uint256"
        },
        {
          "indexed": true,
          "internalType": "address",
          "name": "issuer",
          "type": "address"
        },
        {
          "indexed": false,
          "internalType": "string",
          "name": "certificateHash",
          "type": "string"
        },
        {
          "indexed": false,
          "internalType": "uint256",
          "name": "timestamp",
          "type": "uint256"
        }
      ],
      "name": "CertificateIssued",
      "type": "event"
    },
    {
      "anonymous": false,
      "inputs": [
        {
          "indexed": true,
          "internalType": "uint256",
          "name": "certificateId",
          "type": "uint256"
        },
        {
          "indexed": true,
          "internalType": "address",
          "name": "issuer",
          "type": "address"
        },
        {
          "indexed": false,
          "internalType": "uint256",
          "name": "timestamp",
          "type": "uint256"
        }
      ],
      "name": "CertificateRevoked",
      "type": "event"
    },
    {
      "anonymous": false,
      "inputs": [
        {
          "indexed": true,
          "internalType": "address",
          "name": "entity",
          "type": "address"
        },
        {
          "indexed": false,
          "internalType": "uint256",
          "name": "timestamp",
          "type": "uint256"
        }
      ],
      "name": "EntityDeactivated",
      "type": "event"
    },
    {
      "anonymous": false,
      "inputs": [
        {
          "indexed": true,
          "internalType": "address",
          "name": "entity",
          "type": "address"
        },
        {
          "indexed": false,
          "internalType": "string",
          "name": "name",
          "type": "string"
        },
        {
          "indexed": false,
          "internalType": "uint256",
          "name": "timestamp",
          "type": "uint256"
        }
      ],
      "name": "EntityRegistered",
      "type": "event"
    },
    {
      "anonymous": false,
      "inputs": [
        {
          "indexed": false,
          "internalType": "string",
          "name": "feeType",
          "type": "string"
        },
        {
          "indexed": false,
          "internalType": "uint256",
          "name": "newFee",
          "type": "uint256"
        }
      ],
      "name": "FeeUpdated",
      "type": "event"
    },
    {
      "anonymous": false,
      "inputs": [
        {
          "indexed": true,
          "internalType": "address",
          "name": "owner",
          "type": "address"
        },
        {
          "indexed": false,
          "internalType": "uint256",
          "name": "amount",
          "type": "uint256"
        }
      ],
      "name": "FeesWithdrawn",
      "type": "event"
    },
    {
      "inputs": [
        {
          "internalType": "address",
          "name": "_entity",
          "type": "address"
        }
      ],
      "name": "activateEntity",
      "outputs": [],
      "stateMutability": "nonpayable",
      "type": "function"
    },
    {
      "inputs": [],
      "name": "certificateCount",
      "outputs": [
        {
          "internalType": "uint256",
          "name": "",
          "type": "uint256"
        }
      ],
      "stateMutability": "view",
      "type": "function"
    },
    {
      "inputs": [],
      "name": "certificateIssuanceFee",
      "outputs": [
        {
          "internalType": "uint256",
          "name": "",
          "type": "uint256"
        }
      ],
      "stateMutability": "view",
      "type": "function"
    },
    {
      "inputs": [
        {
          "internalType": "uint256",
          "name": "",
          "type": "uint256"
        }
      ],
      "name": "certificates",
      "outputs": [
        {
          "internalType": "uint256",
          "name": "id",
          "type": "uint256"
        },
        {
          "internalType": "string",
          "name": "certificateHash",
          "type": "string"
        },
        {
          "internalType": "address",
          "name": "issuer",
          "type": "address"
        },
        {
          "internalType": "uint256",
          "name": "issuedAt",
          "type": "uint256"
        },
        {
          "internalType": "bool",
          "name": "isRevoked",
          "type": "bool"
        },
        {
          "internalType": "string",
          "name": "metadata",
          "type": "string"
        }
      ],
      "stateMutability": "view",
      "type": "function"
    },
    {
      "inputs": [
        {
          "internalType": "address",
          "name": "_entity",
          "type": "address"
        }
      ],
      "name": "deactivateEntity",
      "outputs": [],
      "stateMutability": "nonpayable",
      "type": "function"
    },
    {
      "inputs": [
        {
          "internalType": "address",
          "name": "",
          "type": "address"
        },
        {
          "internalType": "uint256",
          "name": "",
          "type": "uint256"
        }
      ],
      "name": "entityCertificates",
      "outputs": [
        {
          "internalType": "uint256",
          "name": "",
          "type": "uint256"
        }
      ],
      "stateMutability": "view",
      "type": "function"
    },
    {
      "inputs": [],
      "name": "getContractBalance",
      "outputs": [
        {
          "internalType": "uint256",
          "name": "",
          "type": "uint256"
        }
      ],
      "stateMutability": "view",
      "type": "function"
    },
    {
      "inputs": [
        {
          "internalType": "address",
          "name": "_entity",
          "type": "address"
        }
      ],
      "name": "getEntityCertificates",
      "outputs": [
        {
          "internalType": "uint256[]",
          "name": "",
          "type": "uint256[]"
        }
      ],
      "stateMutability": "view",
      "type": "function"
    },
    {
      "inputs": [
        {
          "internalType": "address",
          "name": "_entity",
          "type": "address"
        }
      ],
      "name": "getEntityInfo",
      "outputs": [
        {
          "internalType": "address",
          "name": "entityAddress",
          "type": "address"
        },
        {
          "internalType": "string",
          "name": "name",
          "type": "string"
        },
        {
          "internalType": "bool",
          "name": "isActive",
          "type": "bool"
        },
        {
          "internalType": "uint256",
          "name": "registeredAt",
          "type": "uint256"
        },
        {
          "internalType": "uint256",
          "name": "certCount",
          "type": "uint256"
        }
      ],
      "stateMutability": "view",
      "type": "function"
    },
    {
      "inputs": [
        {
          "internalType": "address",
          "name": "",
          "type": "address"
        }
      ],
      "name": "isRegisteredEntity",
      "outputs": [
        {
          "internalType": "bool",
          "name": "",
          "type": "bool"
        }
      ],
      "stateMutability": "view",
      "type": "function"
    },
    {
      "inputs": [
        {
          "internalType": "string",
          "name": "_certificateHash",
          "type": "string"
        },
        {
          "internalType": "string",
          "name": "_metadata",
          "type": "string"
        }
      ],
      "name": "issueCertificate",
      "outputs": [
        {
          "internalType": "uint256",
          "name": "",
          "type": "uint256"
        }
      ],
      "stateMutability": "payable",
      "type": "function"
    },
    {
      "inputs": [
        {
          "internalType": "address",
          "name": "",
          "type": "address"
        }
      ],
      "name": "issuingEntities",
      "outputs": [
        {
          "internalType": "address",
          "name": "entityAddress",
          "type": "address"
        },
        {
          "internalType": "string",
          "name": "name",
          "type": "string"
        },
        {
          "internalType": "bool",
          "name": "isActive",
          "type": "bool"
        },
        {
          "internalType": "uint256",
          "name": "registeredAt",
          "type": "uint256"
        },
        {
          "internalType": "uint256",
          "name": "certificateCount",
          "type": "uint256"
        }
      ],
      "stateMutability": "view",
      "type": "function"
    },
    {
      "inputs": [],
      "name": "owner",
      "outputs": [
        {
          "internalType": "address",
          "name": "",
          "type": "address"
        }
      ],
      "stateMutability": "view",
      "type": "function"
    },
    {
      "inputs": [
        {
          "internalType": "string",
          "name": "_name",
          "type": "string"
        }
      ],
      "name": "registerEntity",
      "outputs": [],
      "stateMutability": "payable",
      "type": "function"
    },
    {
      "inputs": [],
      "name": "registrationFee",
      "outputs": [
        {
          "internalType": "uint256",
          "name": "",
          "type": "uint256"
        }
      ],
      "stateMutability": "view",
      "type": "function"
    },
    {
      "inputs": [
        {
          "internalType": "uint256",
          "name": "_certificateId",
          "type": "uint256"
        }
      ],
      "name": "revokeCertificate",
      "outputs": [],
      "stateMutability": "nonpayable",
      "type": "function"
    },
    {
      "inputs": [
        {
          "internalType": "uint256",
          "name": "_newFee",
          "type": "uint256"
        }
      ],
      "name": "updateIssuanceFee",
      "outputs": [],
      "stateMutability": "nonpayable",
      "type": "function"
    },
    {
      "inputs": [
        {
          "internalType": "uint256",
          "name": "_newFee",
          "type": "uint256"
        }
      ],
      "name": "updateRegistrationFee",
      "outputs": [],
      "stateMutability": "nonpayable",
      "type": "function"
    },
    {
      "inputs": [
        {
          "internalType": "uint256",
          "name": "_certificateId",
          "type": "uint256"
        }
      ],
      "name": "verifyCertificate",
      "outputs": [
        {
          "internalType": "uint256",
          "name": "id",
          "type": "uint256"
        },
        {
          "internalType": "string",
          "name": "certificateHash",
          "type": "string"
        },
        {
          "internalType": "address",
          "name": "issuer",
          "type": "address"
        },
        {
          "internalType": "uint256",
          "name": "issuedAt",
          "type": "uint256"
        },
        {
          "internalType": "bool",
          "name": "isRevoked",
          "type": "bool"
        },
        {
          "internalType": "string",
          "name": "metadata",
          "type": "string"
        },
        {
          "internalType": "string",
          "name": "issuerName",
          "type": "string"
        }
      ],
      "stateMutability": "view",
      "type": "function"
    },
    {
      "inputs": [],
      "name": "withdrawFees",
      "outputs": [],
      "stateMutability": "nonpayable",
      "type": "function"
    }
  ],
  "bytecode": "0x6080604052348015600e575f5ffd5b50604051611b9a380380611b9a833981016040819052602b91604c565b5f80546001600160a01b03191633178155600192909255600255600355606d565b5f5f60408385031215605c575f5ffd5b505080516020909101519092909150565b611b208061007a5f395ff3fe60806040526004361061011b575f3560e01c80635b992efe1161009d578063958a580d11610062578063958a580d1461031b578063af582c6b14610330578063daf60b711461034f578063f24f82411461038d578063fc45f659146103ac575f5ffd5b80635b992efe14610257578063663b3e22146102835780636f9fb98a146102b457806378e13869146102c65780638da5cb5b146102e5575f5ffd5b806340f385ff116100e357806340f385ff146101cc578063476343ee146101fc57806352d7b89c1461021057806354e200e51461022557806355c7196014610238575f5ffd5b806306f5497e1461011f57806314c44e09146101405780631692a94214610168578063211bbe711461019a5780632dc31161146101ad575b5f5ffd5b34801561012a575f5ffd5b5061013e61013936600461156f565b6103cb565b005b34801561014b575f5ffd5b5061015560015481565b6040519081526020015b60405180910390f35b348015610173575f5ffd5b5061018761018236600461156f565b6105e8565b60405161015f97969594939291906115b4565b6101556101a83660046116bd565b6108fc565b3480156101b8575f5ffd5b5061013e6101c736600461173d565b610bad565b3480156101d7575f5ffd5b506101eb6101e636600461173d565b610c9c565b60405161015f95949392919061175d565b348015610207575f5ffd5b5061013e610dbe565b34801561021b575f5ffd5b5061015560035481565b61013e61023336600461179d565b610f04565b348015610243575f5ffd5b506101eb61025236600461173d565b6110dd565b348015610262575f5ffd5b5061027661027136600461173d565b6111a1565b60405161015f91906117d7565b34801561028e575f5ffd5b506102a261029d36600461156f565b61120a565b60405161015f96959493929190611819565b3480156102bf575f5ffd5b5047610155565b3480156102d1575f5ffd5b506101556102e036600461186e565b61135d565b3480156102f0575f5ffd5b505f54610303906001600160a01b031681565b6040516001600160a01b03909116815260200161015f565b348015610326575f5ffd5b5061015560025481565b34801561033b575f5ffd5b5061013e61034a36600461156f565b611388565b34801561035a575f5ffd5b5061037d61036936600461173d565b60066020525f908152604090205460ff1681565b604051901515815260200161015f565b348015610398575f5ffd5b5061013e6103a736600461173d565b611413565b3480156103b7575f5ffd5b5061013e6103c636600461156f565b6114ef565b335f9081526006602052604090205460ff166104285760405162461bcd60e51b81526020600482015260176024820152764e6f742061207265676973746572656420656e7469747960481b60448201526064015b60405180910390fd5b335f9081526005602052604090206002015460ff166104815760405162461bcd60e51b8152602060048201526015602482015274115b9d1a5d1e481a5cc819195858dd1a5d985d1959605a1b604482015260640161041f565b805f8111801561049357506003548111155b6104df5760405162461bcd60e51b815260206004820152601a60248201527f436572746966696361746520646f6573206e6f74206578697374000000000000604482015260640161041f565b5f82815260046020526040902060028101546001600160a01b031633146105415760405162461bcd60e51b81526020600482015260166024820152754f6e6c79206973737565722063616e207265766f6b6560501b604482015260640161041f565b600481015460ff16156105965760405162461bcd60e51b815260206004820152601b60248201527f436572746966696361746520616c7265616479207265766f6b65640000000000604482015260640161041f565b60048101805460ff19166001179055604051339084907f1adbf4393900ce3a2332405b86649270c35d1316887336d83190dcbae6a423b9906105db9042815260200190565b60405180910390a3505050565b5f60605f5f5f606080875f8111801561060357506003548111155b61064f5760405162461bcd60e51b815260206004820152601a60248201527f436572746966696361746520646f6573206e6f74206578697374000000000000604482015260640161041f565b5f60045f8b81526020019081526020015f206040518060c00160405290815f820154815260200160018201805461068590611896565b80601f01602080910402602001604051908101604052809291908181526020018280546106b190611896565b80156106fc5780601f106106d3576101008083540402835291602001916106fc565b820191905f5260205f20905b8154815290600101906020018083116106df57829003601f168201915b505050918352505060028201546001600160a01b0316602082015260038201546040820152600482015460ff161515606082015260058201805460809092019161074590611896565b80601f016020809104026020016040519081016040528092919081815260200182805461077190611896565b80156107bc5780601f10610793576101008083540402835291602001916107bc565b820191905f5260205f20905b81548152906001019060200180831161079f57829003601f168201915b505050919092525050506040808201516001600160a01b039081165f90815260056020908152838220845160a08101909552805490931684526001830180549596509194908401919061080e90611896565b80601f016020809104026020016040519081016040528092919081815260200182805461083a90611896565b80156108855780601f1061085c57610100808354040283529160200191610885565b820191905f5260205f20905b81548152906001019060200180831161086857829003601f168201915b50505050508152602001600282015f9054906101000a900460ff16151515158152602001600382015481526020016004820154815250509050815f015182602001518360400151846060015185608001518660a0015186602001519950995099509950995099509950505050919395979092949650565b335f9081526006602052604081205460ff166109545760405162461bcd60e51b81526020600482015260176024820152764e6f742061207265676973746572656420656e7469747960481b604482015260640161041f565b335f9081526005602052604090206002015460ff166109ad5760405162461bcd60e51b8152602060048201526015602482015274115b9d1a5d1e481a5cc819195858dd1a5d985d1959605a1b604482015260640161041f565b6002543410156109ff5760405162461bcd60e51b815260206004820152601960248201527f496e73756666696369656e742069737375616e63652066656500000000000000604482015260640161041f565b5f835111610a4f5760405162461bcd60e51b815260206004820181905260248201527f436572746966696361746520686173682063616e6e6f7420626520656d707479604482015260640161041f565b60038054905f610a5e836118ce565b90915550506040805160c081018252600354808252602080830187815233848601524260608501525f6080850181905260a0850188905292835260049091529290208151815591519091906001820190610ab8908261193e565b5060408201516002820180546001600160a01b0319166001600160a01b0390921691909117905560608201516003820155608082015160048201805460ff191691151591909117905560a08201516005820190610b15908261193e565b5050335f818152600760209081526040808320600354815460018101835591855283852090910155928252600590529081206004018054925090610b58836118ce565b9190505550336001600160a01b03166003547fb9d73145a257599f646e4847355efef5701531e7dcaea2894ef8500b3a6bd6798542604051610b9b9291906119f9565b60405180910390a35060035492915050565b5f546001600160a01b03163314610bd65760405162461bcd60e51b815260040161041f90611a1a565b6001600160a01b0381165f9081526006602052604090205460ff16610c355760405162461bcd60e51b8152602060048201526015602482015274115b9d1a5d1e481b9bdd081c9959da5cdd195c9959605a1b604482015260640161041f565b6001600160a01b0381165f818152600560205260409081902060028101805460ff1916600190811790915591517f4528ab228fa52918352dfc7c10a235f6c3fff7d5d9a501736d963e9b44847c9792610c919201904290611a5b565b60405180910390a250565b6001600160a01b038082165f908152600560209081526040808320815160a08101909252805490941681526001840180549394606094869485948594859491939192840191610cea90611896565b80601f0160208091040260200160405190810160405280929190818152602001828054610d1690611896565b8015610d615780601f10610d3857610100808354040283529160200191610d61565b820191905f5260205f20905b815481529060010190602001808311610d4457829003601f168201915b5050509183525050600282015460ff16151560208083019190915260038301546040808401919091526004909301546060928301528351908401519284015191840151608090940151909b929a5090985091965090945092505050565b5f546001600160a01b03163314610de75760405162461bcd60e51b815260040161041f90611a1a565b4780610e2b5760405162461bcd60e51b81526020600482015260136024820152724e6f206665657320746f20776974686472617760681b604482015260640161041f565b5f80546040516001600160a01b039091169083908381818185875af1925050503d805f8114610e75576040519150601f19603f3d011682016040523d82523d5f602084013e610e7a565b606091505b5050905080610ebf5760405162461bcd60e51b815260206004820152601160248201527015da5d1a191c985dd85b0819985a5b1959607a1b604482015260640161041f565b5f546040518381526001600160a01b03909116907fc0819c13be868895eb93e40eaceb96de976442fa1d404e5c55f14bb65a8c489a9060200160405180910390a25050565b335f9081526006602052604090205460ff1615610f635760405162461bcd60e51b815260206004820152601960248201527f456e7469747920616c7265616479207265676973746572656400000000000000604482015260640161041f565b600154341015610fb55760405162461bcd60e51b815260206004820152601d60248201527f496e73756666696369656e7420726567697374726174696f6e20666565000000604482015260640161041f565b5f815111610ffc5760405162461bcd60e51b81526020600482015260146024820152734e616d652063616e6e6f7420626520656d70747960601b604482015260640161041f565b6040805160a08101825233808252602080830185815260018486018190524260608601525f60808601819052938452600590925293909120825181546001600160a01b0319166001600160a01b03909116178155925191929190820190611063908261193e565b5060408281015160028301805491151560ff1992831617905560608401516003840155608090930151600490920191909155335f81815260066020528290208054909316600117909255517f4528ab228fa52918352dfc7c10a235f6c3fff7d5d9a501736d963e9b44847c9790610c9190849042906119f9565b60056020525f9081526040902080546001820180546001600160a01b03909216929161110890611896565b80601f016020809104026020016040519081016040528092919081815260200182805461113490611896565b801561117f5780601f106111565761010080835404028352916020019161117f565b820191905f5260205f20905b81548152906001019060200180831161116257829003601f168201915b5050505060028301546003840154600490940154929360ff9091169290915085565b6001600160a01b0381165f908152600760209081526040918290208054835181840281018401909452808452606093928301828280156111fe57602002820191905f5260205f20905b8154815260200190600101908083116111ea575b50505050509050919050565b60046020525f90815260409020805460018201805491929161122b90611896565b80601f016020809104026020016040519081016040528092919081815260200182805461125790611896565b80156112a25780601f10611279576101008083540402835291602001916112a2565b820191905f5260205f20905b81548152906001019060200180831161128557829003601f168201915b50505060028401546003850154600486015460058701805496976001600160a01b039094169692955060ff9091169350906112dc90611896565b80601f016020809104026020016040519081016040528092919081815260200182805461130890611896565b80156113535780601f1061132a57610100808354040283529160200191611353565b820191905f5260205f20905b81548152906001019060200180831161133657829003601f168201915b5050505050905086565b6007602052815f5260405f208181548110611376575f80fd5b905f5260205f20015f91509150505481565b5f546001600160a01b031633146113b15760405162461bcd60e51b815260040161041f90611a1a565b600181905560408051818152600c918101919091526b3932b3b4b9ba3930ba34b7b760a11b6060820152602081018290527fc5dbbc1a39078c6d41f75645288952af1adce3154214371d76e7735665642453906080015b60405180910390a150565b5f546001600160a01b0316331461143c5760405162461bcd60e51b815260040161041f90611a1a565b6001600160a01b0381165f9081526006602052604090205460ff1661149b5760405162461bcd60e51b8152602060048201526015602482015274115b9d1a5d1e481b9bdd081c9959da5cdd195c9959605a1b604482015260640161041f565b6001600160a01b0381165f8181526005602052604090819020600201805460ff19169055517fce7701b94664f9df60bc56a8db19a8d0993a50d07df9f752e53b73fb1569a09390610c919042815260200190565b5f546001600160a01b031633146115185760405162461bcd60e51b815260040161041f90611a1a565b6002819055604080518181526008918101919091526769737375616e636560c01b6060820152602081018290527fc5dbbc1a39078c6d41f75645288952af1adce3154214371d76e773566564245390608001611408565b5f6020828403121561157f575f5ffd5b5035919050565b5f81518084528060208401602086015e5f602082860101526020601f19601f83011685010191505092915050565b87815260e060208201525f6115cc60e0830189611586565b6001600160a01b038816604084015260608301879052851515608084015282810360a08401526115fc8186611586565b905082810360c08401526116108185611586565b9a9950505050505050505050565b634e487b7160e01b5f52604160045260245ffd5b5f82601f830112611641575f5ffd5b813567ffffffffffffffff81111561165b5761165b61161e565b604051601f8201601f19908116603f0116810167ffffffffffffffff8111828210171561168a5761168a61161e565b6040528181528382016020018510156116a1575f5ffd5b816020850160208301375f918101602001919091529392505050565b5f5f604083850312156116ce575f5ffd5b823567ffffffffffffffff8111156116e4575f5ffd5b6116f085828601611632565b925050602083013567ffffffffffffffff81111561170c575f5ffd5b61171885828601611632565b9150509250929050565b80356001600160a01b0381168114611738575f5ffd5b919050565b5f6020828403121561174d575f5ffd5b61175682611722565b9392505050565b6001600160a01b038616815260a0602082018190525f9061178090830187611586565b941515604083015250606081019290925260809091015292915050565b5f602082840312156117ad575f5ffd5b813567ffffffffffffffff8111156117c3575f5ffd5b6117cf84828501611632565b949350505050565b602080825282518282018190525f918401906040840190835b8181101561180e5783518352602093840193909201916001016117f0565b509095945050505050565b86815260c060208201525f61183160c0830188611586565b6001600160a01b038716604084015260608301869052841515608084015282810360a08401526118618185611586565b9998505050505050505050565b5f5f6040838503121561187f575f5ffd5b61188883611722565b946020939093013593505050565b600181811c908216806118aa57607f821691505b6020821081036118c857634e487b7160e01b5f52602260045260245ffd5b50919050565b5f600182016118eb57634e487b7160e01b5f52601160045260245ffd5b5060010190565b601f82111561193957805f5260205f20601f840160051c810160208510156119175750805b601f840160051c820191505b81811015611936575f8155600101611923565b50505b505050565b815167ffffffffffffffff8111156119585761195861161e565b61196c816119668454611896565b846118f2565b6020601f82116001811461199e575f83156119875750848201515b5f19600385901b1c1916600184901b178455611936565b5f84815260208120601f198516915b828110156119cd57878501518255602094850194600190920191016119ad565b50848210156119ea57868401515f19600387901b60f8161c191681555b50505050600190811b01905550565b604081525f611a0b6040830185611586565b90508260208301529392505050565b60208082526021908201527f4f6e6c79206f776e65722063616e2063616c6c20746869732066756e6374696f6040820152603760f91b606082015260800190565b604081525f5f8454611a6c81611896565b806040860152600182165f8114611a8a5760018114611aa657611ad7565b60ff1983166060870152606082151560051b8701019350611ad7565b875f5260205f205f5b83811015611ace57815488820160600152600190910190602001611aaf565b87016060019450505b505050602092909201929092529291505056fea2646970667358221220eb08e6c7c1d6db8d0e76a4a796795f99c5962205231ef744385a043900b7b40a64736f6c634300081c0033",
  "linkReferences": {},
  "deployedLinkReferences": {},
  "immutableReferences": {},
  "inputSourceName": "project/contracts/CertificateRegistry.sol",
  "buildInfoId": "solc-0_8_28-d3b97304d4c7dbee567b36a6b8f3a513874db5f1"
}